{
  "_format": "hh-sol-artifact-1",
  "contractName": "ERC1820Implementer",
  "sourceName": "contracts/utils/introspection/ERC1820Implementer.sol",
  "abi": [
    {
      "inputs": [
        {
          "internalType": "bytes32",
          "name": "interfaceHash",
          "type": "bytes32"
        },
        {
          "internalType": "address",
          "name": "account",
          "type": "address"
        }
      ],
      "name": "canImplementInterfaceForAddress",
      "outputs": [
        {
          "internalType": "bytes32",
          "name": "",
          "type": "bytes32"
        }
      ],
      "stateMutability": "view",
      "type": "function"
    }
  ],
  "bytecode": "0x608060405234801561001057600080fd5b5061012e806100206000396000f3fe6080604052348015600f57600080fd5b506004361060285760003560e01c8063249cb3fa14602d575b600080fd5b603c603836600460b1565b604e565b60405190815260200160405180910390f35b60008281526020818152604080832073ffffffffffffffffffffffffffffffffffffffff8516845290915281205460ff16608857600060aa565b7fa2ef4600d742022d532d4747cb3547474667d6f13804902513b2ec01c848f4b45b9392505050565b6000806040838503121560c357600080fd5b82359150602083013573ffffffffffffffffffffffffffffffffffffffff8116811460ed57600080fd5b80915050925092905056fea2646970667358221220b7dbe03ef1c24493085794d2679e5cdeace967df43010c386bbe23b697297c9764736f6c63430008090033",
  "linkReferences": {},
  "deployedLinkReferences": {}
}