{
  "_format": "hh-sol-artifact-1",
  "contractName": "VestingWallet",
  "sourceName": "contracts/finance/VestingWallet.sol",
  "abi": [
    {
      "inputs": [
        {
          "internalType": "address",
          "name": "beneficiaryAddress",
          "type": "address"
        },
        {
          "internalType": "uint64",
          "name": "startTimestamp",
          "type": "uint64"
        },
        {
          "internalType": "uint64",
          "name": "durationSeconds",
          "type": "uint64"
        }
      ],
      "stateMutability": "payable",
      "type": "constructor"
    },
    {
      "anonymous": false,
      "inputs": [
        {
          "indexed": true,
          "internalType": "address",
          "name": "token",
          "type": "address"
        },
        {
          "indexed": false,
          "internalType": "uint256",
          "name": "amount",
          "type": "uint256"
        }
      ],
      "name": "ERC20Released",
      "type": "event"
    },
    {
      "anonymous": false,
      "inputs": [
        {
          "indexed": false,
          "internalType": "uint256",
          "name": "amount",
          "type": "uint256"
        }
      ],
      "name": "EtherReleased",
      "type": "event"
    },
    {
      "inputs": [],
      "name": "beneficiary",
      "outputs": [
        {
          "internalType": "address",
          "name": "",
          "type": "address"
        }
      ],
      "stateMutability": "view",
      "type": "function"
    },
    {
      "inputs": [],
      "name": "duration",
      "outputs": [
        {
          "internalType": "uint256",
          "name": "",
          "type": "uint256"
        }
      ],
      "stateMutability": "view",
      "type": "function"
    },
    {
      "inputs": [
        {
          "internalType": "address",
          "name": "token",
          "type": "address"
        }
      ],
      "name": "releasable",
      "outputs": [
        {
          "internalType": "uint256",
          "name": "",
          "type": "uint256"
        }
      ],
      "stateMutability": "view",
      "type": "function"
    },
    {
      "inputs": [],
      "name": "releasable",
      "outputs": [
        {
          "internalType": "uint256",
          "name": "",
          "type": "uint256"
        }
      ],
      "stateMutability": "view",
      "type": "function"
    },
    {
      "inputs": [
        {
          "internalType": "address",
          "name": "token",
          "type": "address"
        }
      ],
      "name": "release",
      "outputs": [],
      "stateMutability": "nonpayable",
      "type": "function"
    },
    {
      "inputs": [],
      "name": "release",
      "outputs": [],
      "stateMutability": "nonpayable",
      "type": "function"
    },
    {
      "inputs": [],
      "name": "released",
      "outputs": [
        {
          "internalType": "uint256",
          "name": "",
          "type": "uint256"
        }
      ],
      "stateMutability": "view",
      "type": "function"
    },
    {
      "inputs": [
        {
          "internalType": "address",
          "name": "token",
          "type": "address"
        }
      ],
      "name": "released",
      "outputs": [
        {
          "internalType": "uint256",
          "name": "",
          "type": "uint256"
        }
      ],
      "stateMutability": "view",
      "type": "function"
    },
    {
      "inputs": [],
      "name": "start",
      "outputs": [
        {
          "internalType": "uint256",
          "name": "",
          "type": "uint256"
        }
      ],
      "stateMutability": "view",
      "type": "function"
    },
    {
      "inputs": [
        {
          "internalType": "uint64",
          "name": "timestamp",
          "type": "uint64"
        }
      ],
      "name": "vestedAmount",
      "outputs": [
        {
          "internalType": "uint256",
          "name": "",
          "type": "uint256"
        }
      ],
      "stateMutability": "view",
      "type": "function"
    },
    {
      "inputs": [
        {
          "internalType": "address",
          "name": "token",
          "type": "address"
        },
        {
          "internalType": "uint64",
          "name": "timestamp",
          "type": "uint64"
        }
      ],
      "name": "vestedAmount",
      "outputs": [
        {
          "internalType": "uint256",
          "name": "",
          "type": "uint256"
        }
      ],
      "stateMutability": "view",
      "type": "function"
    },
    {
      "stateMutability": "payable",
      "type": "receive"
    }
  ],
  "bytecode": "0x60e0604052604051610de8380380610de8833981016040819052610022916100d0565b6001600160a01b03831661008f5760405162461bcd60e51b815260206004820152602a60248201527f56657374696e6757616c6c65743a2062656e6566696369617279206973207a65604482015269726f206164647265737360b01b606482015260840160405180910390fd5b6001600160a01b039092166080526001600160401b0390811660a0521660c052610121565b80516001600160401b03811681146100cb57600080fd5b919050565b6000806000606084860312156100e557600080fd5b83516001600160a01b03811681146100fc57600080fd5b925061010a602085016100b4565b9150610118604085016100b4565b90509250925092565b60805160a05160c051610c676101816000396000818161010e0152818161053f01526105a2015260008181610251015281816104ef0152818161056301526105cd01526000818161017801528181610339015261047a0152610c676000f3fe6080604052600436106100c05760003560e01c806386d1a69f11610074578063a3f8eace1161004e578063a3f8eace14610222578063be9a655514610242578063fbccedae1461027f57600080fd5b806386d1a69f146101c257806396132521146101d75780639852595c146101ec57600080fd5b806319165587116100a5578063191655871461013c57806338af3eed1461015e578063810ec23b146101a257600080fd5b80630a17b06b146100cc5780630fb5a6b4146100ff57600080fd5b366100c757005b600080fd5b3480156100d857600080fd5b506100ec6100e7366004610a71565b610294565b6040519081526020015b60405180910390f35b34801561010b57600080fd5b507f000000000000000000000000000000000000000000000000000000000000000067ffffffffffffffff166100ec565b34801561014857600080fd5b5061015c610157366004610aa3565b6102b8565b005b34801561016a57600080fd5b506040516001600160a01b037f00000000000000000000000000000000000000000000000000000000000000001681526020016100f6565b3480156101ae57600080fd5b506100ec6101bd366004610abe565b610362565b3480156101ce57600080fd5b5061015c610420565b3480156101e357600080fd5b506000546100ec565b3480156101f857600080fd5b506100ec610207366004610aa3565b6001600160a01b031660009081526001602052604090205490565b34801561022e57600080fd5b506100ec61023d366004610aa3565b6104a2565b34801561024e57600080fd5b507f000000000000000000000000000000000000000000000000000000000000000067ffffffffffffffff166100ec565b34801561028b57600080fd5b506100ec6104cf565b60006102b26102a260005490565b6102ac9047610b07565b836104eb565b92915050565b60006102c3826104a2565b6001600160a01b0383166000908152600160205260408120805492935083929091906102f0908490610b07565b90915550506040518181526001600160a01b038316907fc0e523490dd523c33b1878c9eb14ff46991e3f5b2cd33710918618f2a39cba1b9060200160405180910390a261035e827f000000000000000000000000000000000000000000000000000000000000000083610625565b5050565b6001600160a01b038216600090815260016020526040812054610419906040517f70a082310000000000000000000000000000000000000000000000000000000081523060048201526001600160a01b038616906370a082319060240160206040518083038186803b1580156103d757600080fd5b505afa1580156103eb573d6000803e3d6000fd5b505050506040513d601f19601f8201168201806040525081019061040f9190610b1f565b6102ac9190610b07565b9392505050565b600061042a6104cf565b90508060008082825461043d9190610b07565b90915550506040518181527fda9d4e5f101b8b9b1c5b76d0c5a9f7923571acfc02376aa076b75a8c080c956b9060200160405180910390a161049f7f0000000000000000000000000000000000000000000000000000000000000000826106aa565b50565b6001600160a01b0381166000908152600160205260408120546104c58342610362565b6102b29190610b38565b600080546104dc42610294565b6104e69190610b38565b905090565b60007f000000000000000000000000000000000000000000000000000000000000000067ffffffffffffffff168267ffffffffffffffff161015610531575060006102b2565b61058867ffffffffffffffff7f00000000000000000000000000000000000000000000000000000000000000008116907f000000000000000000000000000000000000000000000000000000000000000016610b07565b8267ffffffffffffffff1611156105a05750816102b2565b7f000000000000000000000000000000000000000000000000000000000000000067ffffffffffffffff167f000000000000000000000000000000000000000000000000000000000000000067ffffffffffffffff1661060a9067ffffffffffffffff8516610b38565b6106149085610b4f565b61061e9190610b6e565b90506102b2565b604080516001600160a01b038416602482015260448082018490528251808303909101815260649091019091526020810180517bffffffffffffffffffffffffffffffffffffffffffffffffffffffff167fa9059cbb000000000000000000000000000000000000000000000000000000001790526106a59084906107c8565b505050565b804710156106ff5760405162461bcd60e51b815260206004820152601d60248201527f416464726573733a20696e73756666696369656e742062616c616e636500000060448201526064015b60405180910390fd5b6000826001600160a01b03168260405160006040518083038185875af1925050503d806000811461074c576040519150601f19603f3d011682016040523d82523d6000602084013e610751565b606091505b50509050806106a55760405162461bcd60e51b815260206004820152603a60248201527f416464726573733a20756e61626c6520746f2073656e642076616c75652c207260448201527f6563697069656e74206d6179206861766520726576657274656400000000000060648201526084016106f6565b600061081d826040518060400160405280602081526020017f5361666545524332303a206c6f772d6c6576656c2063616c6c206661696c6564815250856001600160a01b03166108b09092919063ffffffff16565b905080516000148061083e57508080602001905181019061083e9190610b90565b6106a55760405162461bcd60e51b815260206004820152602a60248201527f5361666545524332303a204552433230206f7065726174696f6e20646964206e60448201527f6f7420737563636565640000000000000000000000000000000000000000000060648201526084016106f6565b60606108bf84846000856108c7565b949350505050565b60608247101561093f5760405162461bcd60e51b815260206004820152602660248201527f416464726573733a20696e73756666696369656e742062616c616e636520666f60448201527f722063616c6c000000000000000000000000000000000000000000000000000060648201526084016106f6565b600080866001600160a01b0316858760405161095b9190610be2565b60006040518083038185875af1925050503d8060008114610998576040519150601f19603f3d011682016040523d82523d6000602084013e61099d565b606091505b50915091506109ae878383876109b9565b979650505050505050565b60608315610a25578251610a1e576001600160a01b0385163b610a1e5760405162461bcd60e51b815260206004820152601d60248201527f416464726573733a2063616c6c20746f206e6f6e2d636f6e747261637400000060448201526064016106f6565b50816108bf565b6108bf8383815115610a3a5781518083602001fd5b8060405162461bcd60e51b81526004016106f69190610bfe565b803567ffffffffffffffff81168114610a6c57600080fd5b919050565b600060208284031215610a8357600080fd5b61041982610a54565b80356001600160a01b0381168114610a6c57600080fd5b600060208284031215610ab557600080fd5b61041982610a8c565b60008060408385031215610ad157600080fd5b610ada83610a8c565b9150610ae860208401610a54565b90509250929050565b634e487b7160e01b600052601160045260246000fd5b60008219821115610b1a57610b1a610af1565b500190565b600060208284031215610b3157600080fd5b5051919050565b600082821015610b4a57610b4a610af1565b500390565b6000816000190483118215151615610b6957610b69610af1565b500290565b600082610b8b57634e487b7160e01b600052601260045260246000fd5b500490565b600060208284031215610ba257600080fd5b8151801515811461041957600080fd5b60005b83811015610bcd578181015183820152602001610bb5565b83811115610bdc576000848401525b50505050565b60008251610bf4818460208701610bb2565b9190910192915050565b6020815260008251806020840152610c1d816040850160208701610bb2565b601f01601f1916919091016040019291505056fea2646970667358221220d11168b7ed462cfdf234c9b6e6ceb614e458f60564f78c8648d15fb8b40c9ce664736f6c63430008090033",
  "linkReferences": {},
  "deployedLinkReferences": {}
}